{
  "_format": "hh-sol-artifact-1",
  "contractName": "TaskManager",
  "sourceName": "contracts/TaskManager.sol",
  "abi": [
    {
      "inputs": [],
      "stateMutability": "nonpayable",
      "type": "constructor"
    },
    {
      "inputs": [
        {
          "internalType": "address",
          "name": "owner",
          "type": "address"
        }
      ],
      "name": "OwnableInvalidOwner",
      "type": "error"
    },
    {
      "inputs": [
        {
          "internalType": "address",
          "name": "account",
          "type": "address"
        }
      ],
      "name": "OwnableUnauthorizedAccount",
      "type": "error"
    },
    {
      "anonymous": false,
      "inputs": [
        {
          "indexed": true,
          "internalType": "address",
          "name": "previousOwner",
          "type": "address"
        },
        {
          "indexed": true,
          "internalType": "address",
          "name": "newOwner",
          "type": "address"
        }
      ],
      "name": "OwnershipTransferred",
      "type": "event"
    },
    {
      "anonymous": false,
      "inputs": [
        {
          "indexed": false,
          "internalType": "uint256",
          "name": "taskId",
          "type": "uint256"
        }
      ],
      "name": "TaskCompleted",
      "type": "event"
    },
    {
      "anonymous": false,
      "inputs": [
        {
          "indexed": false,
          "internalType": "uint256",
          "name": "taskId",
          "type": "uint256"
        },
        {
          "indexed": false,
          "internalType": "address",
          "name": "owner",
          "type": "address"
        },
        {
          "indexed": false,
          "internalType": "string",
          "name": "title",
          "type": "string"
        }
      ],
      "name": "TaskCreated",
      "type": "event"
    },
    {
      "anonymous": false,
      "inputs": [
        {
          "indexed": false,
          "internalType": "uint256",
          "name": "taskId",
          "type": "uint256"
        }
      ],
      "name": "TaskDeleted",
      "type": "event"
    },
    {
      "anonymous": false,
      "inputs": [
        {
          "indexed": false,
          "internalType": "uint256",
          "name": "taskId",
          "type": "uint256"
        },
        {
          "indexed": false,
          "internalType": "string",
          "name": "title",
          "type": "string"
        },
        {
          "indexed": false,
          "internalType": "string",
          "name": "description",
          "type": "string"
        },
        {
          "indexed": false,
          "internalType": "bool",
          "name": "isCompleted",
          "type": "bool"
        }
      ],
      "name": "TaskUpdated",
      "type": "event"
    },
    {
      "inputs": [
        {
          "internalType": "string",
          "name": "_title",
          "type": "string"
        },
        {
          "internalType": "string",
          "name": "_description",
          "type": "string"
        }
      ],
      "name": "addTask",
      "outputs": [],
      "stateMutability": "nonpayable",
      "type": "function"
    },
    {
      "inputs": [
        {
          "internalType": "uint256",
          "name": "_taskId",
          "type": "uint256"
        }
      ],
      "name": "deleteTask",
      "outputs": [],
      "stateMutability": "nonpayable",
      "type": "function"
    },
    {
      "inputs": [
        {
          "internalType": "uint256",
          "name": "_taskId",
          "type": "uint256"
        },
        {
          "internalType": "string",
          "name": "_newTitle",
          "type": "string"
        },
        {
          "internalType": "string",
          "name": "_newDescription",
          "type": "string"
        }
      ],
      "name": "editTask",
      "outputs": [],
      "stateMutability": "nonpayable",
      "type": "function"
    },
    {
      "inputs": [],
      "name": "getUserTasks",
      "outputs": [
        {
          "components": [
            {
              "internalType": "uint256",
              "name": "id",
              "type": "uint256"
            },
            {
              "internalType": "string",
              "name": "title",
              "type": "string"
            },
            {
              "internalType": "string",
              "name": "description",
              "type": "string"
            },
            {
              "internalType": "bool",
              "name": "isCompleted",
              "type": "bool"
            },
            {
              "internalType": "address",
              "name": "owner",
              "type": "address"
            }
          ],
          "internalType": "struct TaskManager.Task[]",
          "name": "",
          "type": "tuple[]"
        }
      ],
      "stateMutability": "view",
      "type": "function"
    },
    {
      "inputs": [
        {
          "internalType": "uint256",
          "name": "_taskId",
          "type": "uint256"
        }
      ],
      "name": "markTaskCompleted",
      "outputs": [],
      "stateMutability": "nonpayable",
      "type": "function"
    },
    {
      "inputs": [],
      "name": "owner",
      "outputs": [
        {
          "internalType": "address",
          "name": "",
          "type": "address"
        }
      ],
      "stateMutability": "view",
      "type": "function"
    },
    {
      "inputs": [],
      "name": "renounceOwnership",
      "outputs": [],
      "stateMutability": "nonpayable",
      "type": "function"
    },
    {
      "inputs": [
        {
          "internalType": "address",
          "name": "newOwner",
          "type": "address"
        }
      ],
      "name": "transferOwnership",
      "outputs": [],
      "stateMutability": "nonpayable",
      "type": "function"
    },
    {
      "inputs": [
        {
          "internalType": "address",
          "name": "",
          "type": "address"
        }
      ],
      "name": "userTaskCount",
      "outputs": [
        {
          "internalType": "uint256",
          "name": "",
          "type": "uint256"
        }
      ],
      "stateMutability": "view",
      "type": "function"
    }
  ],
  "bytecode": "0x608060405234801561001057600080fd5b5033600073ffffffffffffffffffffffffffffffffffffffff168173ffffffffffffffffffffffffffffffffffffffff16036100845760006040517f1e4fbdf700000000000000000000000000000000000000000000000000000000815260040161007b919061019e565b60405180910390fd5b6100938161009960201b60201c565b506101b9565b60008060009054906101000a900473ffffffffffffffffffffffffffffffffffffffff169050816000806101000a81548173ffffffffffffffffffffffffffffffffffffffff021916908373ffffffffffffffffffffffffffffffffffffffff1602179055508173ffffffffffffffffffffffffffffffffffffffff168173ffffffffffffffffffffffffffffffffffffffff167f8be0079c531659141344cd1fd0a4f28419497f9722a3daafe3b4186f6b6457e060405160405180910390a35050565b600073ffffffffffffffffffffffffffffffffffffffff82169050919050565b60006101888261015d565b9050919050565b6101988161017d565b82525050565b60006020820190506101b3600083018461018f565b92915050565b611b1d806101c86000396000f3fe608060405234801561001057600080fd5b50600436106100925760003560e01c806358f9e7411161006657806358f9e74114610109578063715018a6146101395780638da5cb5b14610143578063b37b100014610161578063f2fde38b1461017d57610092565b80620b2bda1461009757806334112f5f146100b35780634103c62e146100d1578063560f3192146100ed575b600080fd5b6100b160048036038101906100ac9190611013565b610199565b005b6100bb6102a6565b6040516100c8919061127a565b60405180910390f35b6100eb60048036038101906100e691906113d1565b6106ed565b005b61010760048036038101906101029190611013565b61083e565b005b610123600480360381019061011e9190611488565b610aea565b60405161013091906114c4565b60405180910390f35b610141610b02565b005b61014b610b16565b60405161015891906114ee565b60405180910390f35b61017b60048036038101906101769190611509565b610b3f565b005b61019760048036038101906101929190611488565b610d4c565b005b3373ffffffffffffffffffffffffffffffffffffffff166002600083815260200190815260200160002060030160019054906101000a900473ffffffffffffffffffffffffffffffffffffffff1673ffffffffffffffffffffffffffffffffffffffff161461023d576040517f08c379a0000000000000000000000000000000000000000000000000000000008152600401610234906115de565b60405180910390fd5b60016002600083815260200190815260200160002060030160006101000a81548160ff0219169083151502179055507fc1fa7142cfb933d0855114a3bffde296944c30b727f297c14d0db4d553d3a5c78160405161029b91906114c4565b60405180910390a150565b60606000600360003373ffffffffffffffffffffffffffffffffffffffff1673ffffffffffffffffffffffffffffffffffffffff16815260200190815260200160002080548060200260200160405190810160405280929190818152602001828054801561033357602002820191906000526020600020905b81548152602001906001019080831161031f575b505050505090506000805b82518110156103e757600073ffffffffffffffffffffffffffffffffffffffff1660026000858481518110610376576103756115fe565b5b6020026020010151815260200190815260200160002060030160019054906101000a900473ffffffffffffffffffffffffffffffffffffffff1673ffffffffffffffffffffffffffffffffffffffff16146103da5781806103d69061165c565b9250505b808060010191505061033e565b5060008167ffffffffffffffff811115610404576104036112a6565b5b60405190808252806020026020018201604052801561043d57816020015b61042a610f25565b8152602001906001900390816104225790505b5090506000805b84518110156106e257600073ffffffffffffffffffffffffffffffffffffffff166002600087848151811061047c5761047b6115fe565b5b6020026020010151815260200190815260200160002060030160019054906101000a900473ffffffffffffffffffffffffffffffffffffffff1673ffffffffffffffffffffffffffffffffffffffff16146106d557600260008683815181106104e8576104e76115fe565b5b602002602001015181526020019081526020016000206040518060a001604052908160008201548152602001600182018054610523906116d3565b80601f016020809104026020016040519081016040528092919081815260200182805461054f906116d3565b801561059c5780601f106105715761010080835404028352916020019161059c565b820191906000526020600020905b81548152906001019060200180831161057f57829003601f168201915b505050505081526020016002820180546105b5906116d3565b80601f01602080910402602001604051908101604052809291908181526020018280546105e1906116d3565b801561062e5780601f106106035761010080835404028352916020019161062e565b820191906000526020600020905b81548152906001019060200180831161061157829003601f168201915b505050505081526020016003820160009054906101000a900460ff161515151581526020016003820160019054906101000a900473ffffffffffffffffffffffffffffffffffffffff1673ffffffffffffffffffffffffffffffffffffffff1673ffffffffffffffffffffffffffffffffffffffff16815250508383815181106106bb576106ba6115fe565b5b602002602001018190525081806106d19061165c565b9250505b8080600101915050610444565b508194505050505090565b3373ffffffffffffffffffffffffffffffffffffffff166002600085815260200190815260200160002060030160019054906101000a900473ffffffffffffffffffffffffffffffffffffffff1673ffffffffffffffffffffffffffffffffffffffff1614610791576040517f08c379a0000000000000000000000000000000000000000000000000000000008152600401610788906115de565b60405180910390fd5b816002600085815260200190815260200160002060010190816107b491906118b0565b50806002600085815260200190815260200160002060020190816107d891906118b0565b507f6db818a3525eee1a2adc73fad332a8f584e76319c58cf349df6baf078261e41e8383836002600088815260200190815260200160002060030160009054906101000a900460ff1660405161083194939291906119ca565b60405180910390a1505050565b3373ffffffffffffffffffffffffffffffffffffffff166002600083815260200190815260200160002060030160019054906101000a900473ffffffffffffffffffffffffffffffffffffffff1673ffffffffffffffffffffffffffffffffffffffff16146108e2576040517f08c379a00000000000000000000000000000000000000000000000000000000081526004016108d9906115de565b60405180910390fd5b6000600360003373ffffffffffffffffffffffffffffffffffffffff1673ffffffffffffffffffffffffffffffffffffffff168152602001908152602001600020905060005b81805490508110156109e05782828281548110610948576109476115fe565b5b9060005260206000200154036109d357816001838054905061096a9190611a1d565b8154811061097b5761097a6115fe565b5b9060005260206000200154828281548110610999576109986115fe565b5b9060005260206000200181905550818054806109b8576109b7611a51565b5b600190038181906000526020600020016000905590556109e0565b8080600101915050610928565b5060026000838152602001908152602001600020600080820160009055600182016000610a0d9190610f6c565b600282016000610a1d9190610f6c565b6003820160006101000a81549060ff02191690556003820160016101000a81549073ffffffffffffffffffffffffffffffffffffffff02191690555050600460003373ffffffffffffffffffffffffffffffffffffffff1673ffffffffffffffffffffffffffffffffffffffff1681526020019081526020016000206000815480929190610aaa90611a80565b91905055507fd078b251d950cc55c44340be1db732337ef4939a76e1367ee271ad2cb19c46af82604051610ade91906114c4565b60405180910390a15050565b60046020528060005260406000206000915090505481565b610b0a610dd2565b610b146000610e59565b565b60008060009054906101000a900473ffffffffffffffffffffffffffffffffffffffff16905090565b60016000815480929190610b529061165c565b91905055506040518060a0016040528060015481526020018381526020018281526020016000151581526020013373ffffffffffffffffffffffffffffffffffffffff16815250600260006001548152602001908152602001600020600082015181600001556020820151816001019081610bcd91906118b0565b506040820151816002019081610be391906118b0565b5060608201518160030160006101000a81548160ff02191690831515021790555060808201518160030160016101000a81548173ffffffffffffffffffffffffffffffffffffffff021916908373ffffffffffffffffffffffffffffffffffffffff160217905550905050600360003373ffffffffffffffffffffffffffffffffffffffff1673ffffffffffffffffffffffffffffffffffffffff1681526020019081526020016000206001549080600181540180825580915050600190039060005260206000200160009091909190915055600460003373ffffffffffffffffffffffffffffffffffffffff1673ffffffffffffffffffffffffffffffffffffffff1681526020019081526020016000206000815480929190610d069061165c565b91905055507f5b2493258cbc7169ad9389516998320ce25dc27637cea28ddd0d033af122bfa66001543384604051610d4093929190611aa9565b60405180910390a15050565b610d54610dd2565b600073ffffffffffffffffffffffffffffffffffffffff168173ffffffffffffffffffffffffffffffffffffffff1603610dc65760006040517f1e4fbdf7000000000000000000000000000000000000000000000000000000008152600401610dbd91906114ee565b60405180910390fd5b610dcf81610e59565b50565b610dda610f1d565b73ffffffffffffffffffffffffffffffffffffffff16610df8610b16565b73ffffffffffffffffffffffffffffffffffffffff1614610e5757610e1b610f1d565b6040517f118cdaa7000000000000000000000000000000000000000000000000000000008152600401610e4e91906114ee565b60405180910390fd5b565b60008060009054906101000a900473ffffffffffffffffffffffffffffffffffffffff169050816000806101000a81548173ffffffffffffffffffffffffffffffffffffffff021916908373ffffffffffffffffffffffffffffffffffffffff1602179055508173ffffffffffffffffffffffffffffffffffffffff168173ffffffffffffffffffffffffffffffffffffffff167f8be0079c531659141344cd1fd0a4f28419497f9722a3daafe3b4186f6b6457e060405160405180910390a35050565b600033905090565b6040518060a00160405280600081526020016060815260200160608152602001600015158152602001600073ffffffffffffffffffffffffffffffffffffffff1681525090565b508054610f78906116d3565b6000825580601f10610f8a5750610fa9565b601f016020900490600052602060002090810190610fa89190610fac565b5b50565b5b80821115610fc5576000816000905550600101610fad565b5090565b6000604051905090565b600080fd5b600080fd5b6000819050919050565b610ff081610fdd565b8114610ffb57600080fd5b50565b60008135905061100d81610fe7565b92915050565b60006020828403121561102957611028610fd3565b5b600061103784828501610ffe565b91505092915050565b600081519050919050565b600082825260208201905092915050565b6000819050602082019050919050565b61107581610fdd565b82525050565b600081519050919050565b600082825260208201905092915050565b60005b838110156110b557808201518184015260208101905061109a565b60008484015250505050565b6000601f19601f8301169050919050565b60006110dd8261107b565b6110e78185611086565b93506110f7818560208601611097565b611100816110c1565b840191505092915050565b60008115159050919050565b6111208161110b565b82525050565b600073ffffffffffffffffffffffffffffffffffffffff82169050919050565b600061115182611126565b9050919050565b61116181611146565b82525050565b600060a08301600083015161117f600086018261106c565b506020830151848203602086015261119782826110d2565b915050604083015184820360408601526111b182826110d2565b91505060608301516111c66060860182611117565b5060808301516111d96080860182611158565b508091505092915050565b60006111f08383611167565b905092915050565b6000602082019050919050565b600061121082611040565b61121a818561104b565b93508360208202850161122c8561105c565b8060005b85811015611268578484038952815161124985826111e4565b9450611254836111f8565b925060208a01995050600181019050611230565b50829750879550505050505092915050565b600060208201905081810360008301526112948184611205565b905092915050565b600080fd5b600080fd5b7f4e487b7100000000000000000000000000000000000000000000000000000000600052604160045260246000fd5b6112de826110c1565b810181811067ffffffffffffffff821117156112fd576112fc6112a6565b5b80604052505050565b6000611310610fc9565b905061131c82826112d5565b919050565b600067ffffffffffffffff82111561133c5761133b6112a6565b5b611345826110c1565b9050602081019050919050565b82818337600083830152505050565b600061137461136f84611321565b611306565b9050828152602081018484840111156113905761138f6112a1565b5b61139b848285611352565b509392505050565b600082601f8301126113b8576113b761129c565b5b81356113c8848260208601611361565b91505092915050565b6000806000606084860312156113ea576113e9610fd3565b5b60006113f886828701610ffe565b935050602084013567ffffffffffffffff81111561141957611418610fd8565b5b611425868287016113a3565b925050604084013567ffffffffffffffff81111561144657611445610fd8565b5b611452868287016113a3565b9150509250925092565b61146581611146565b811461147057600080fd5b50565b6000813590506114828161145c565b92915050565b60006020828403121561149e5761149d610fd3565b5b60006114ac84828501611473565b91505092915050565b6114be81610fdd565b82525050565b60006020820190506114d960008301846114b5565b92915050565b6114e881611146565b82525050565b600060208201905061150360008301846114df565b92915050565b600080604083850312156115205761151f610fd3565b5b600083013567ffffffffffffffff81111561153e5761153d610fd8565b5b61154a858286016113a3565b925050602083013567ffffffffffffffff81111561156b5761156a610fd8565b5b611577858286016113a3565b9150509250929050565b600082825260208201905092915050565b7f4e6f7420746865207461736b206f776e65720000000000000000000000000000600082015250565b60006115c8601283611581565b91506115d382611592565b602082019050919050565b600060208201905081810360008301526115f7816115bb565b9050919050565b7f4e487b7100000000000000000000000000000000000000000000000000000000600052603260045260246000fd5b7f4e487b7100000000000000000000000000000000000000000000000000000000600052601160045260246000fd5b600061166782610fdd565b91507fffffffffffffffffffffffffffffffffffffffffffffffffffffffffffffffff82036116995761169861162d565b5b600182019050919050565b7f4e487b7100000000000000000000000000000000000000000000000000000000600052602260045260246000fd5b600060028204905060018216806116eb57607f821691505b6020821081036116fe576116fd6116a4565b5b50919050565b60008190508160005260206000209050919050565b60006020601f8301049050919050565b600082821b905092915050565b6000600883026117667fffffffffffffffffffffffffffffffffffffffffffffffffffffffffffffffff82611729565b6117708683611729565b95508019841693508086168417925050509392505050565b6000819050919050565b60006117ad6117a86117a384610fdd565b611788565b610fdd565b9050919050565b6000819050919050565b6117c783611792565b6117db6117d3826117b4565b848454611736565b825550505050565b600090565b6117f06117e3565b6117fb8184846117be565b505050565b5b8181101561181f576118146000826117e8565b600181019050611801565b5050565b601f8211156118645761183581611704565b61183e84611719565b8101602085101561184d578190505b61186161185985611719565b830182611800565b50505b505050565b600082821c905092915050565b600061188760001984600802611869565b1980831691505092915050565b60006118a08383611876565b9150826002028217905092915050565b6118b98261107b565b67ffffffffffffffff8111156118d2576118d16112a6565b5b6118dc82546116d3565b6118e7828285611823565b600060209050601f83116001811461191a5760008415611908578287015190505b6119128582611894565b86555061197a565b601f19841661192886611704565b60005b828110156119505784890151825560018201915060208501945060208101905061192b565b8683101561196d5784890151611969601f891682611876565b8355505b6001600288020188555050505b505050505050565b600061198d8261107b565b6119978185611581565b93506119a7818560208601611097565b6119b0816110c1565b840191505092915050565b6119c48161110b565b82525050565b60006080820190506119df60008301876114b5565b81810360208301526119f18186611982565b90508181036040830152611a058185611982565b9050611a1460608301846119bb565b95945050505050565b6000611a2882610fdd565b9150611a3383610fdd565b9250828203905081811115611a4b57611a4a61162d565b5b92915050565b7f4e487b7100000000000000000000000000000000000000000000000000000000600052603160045260246000fd5b6000611a8b82610fdd565b915060008203611a9e57611a9d61162d565b5b600182039050919050565b6000606082019050611abe60008301866114b5565b611acb60208301856114df565b8181036040830152611add8184611982565b905094935050505056fea26469706673582212203d3ab77760952ddcacf6eea26efc144f03e5f81661e0ba972f453267dbaa426964736f6c634300081b0033",
  "linkReferences": {},
  "deployedLinkReferences": {}
}